:020000040800F2
:10000000680600208901000889040008C50300086B
:100010008504000843020008650F00080000000086
:10002000000000000000000000000000FD080008C3
:100030004702000800000000B9080008E9090008AC
:10004000A3010008A3010008A3010008A301000800
:10005000A3010008A3010008A3010008A3010008F0
:10006000A3010008A3010008A3010008A3010008E0
:10007000A3010008A3010008A3010008A3010008D0
:10008000A3010008A3010008A3010008A3010008C0
:10009000A3010008A3010008A3010008A3010008B0
:1000A000A3010008A3010008A3010008A3010008A0
:1000B000A3010008A3010008A3010008A301000890
:1000C000A3010008A3010008A3010008A301000880
:1000D000A3010008A3010008A3010008A301000870
:1000E00049020008A3010008A301000800F002F87B
:1000F00000F03AF80AA090E8000C82448344AAF188
:100100000107DA4501D100F02FF8AFF2090EBAE885
:100110000F0013F0010F18BFFB1A43F0010318473B
:100120007C1400009C140000103A24BF78C878C1E9
:10013000FAD8520724BF30C830C144BF04680C60ED
:10014000704700000023002400250026103A28BF35
:1001500078C1FBD8520728BF30C148BF0B60704739
:100160001FB51FBD10B510BD00F031F81146FFF7E7
:10017000F7FF00F0F9FE00F04FF803B4FFF7F2FFCD
:1001800003BC00F057F800000948804709480047C1
:10019000FEE7FEE7FEE7FEE7FEE7FEE7FEE7FEE737
:1001A000FEE7FEE704480549054A064B7047000094
:1001B000ED090008ED000008680000206806002036
:1001C000680200206802002070477047704775463B
:1001D00000F02CF8AE4605006946534620F00700B3
:1001E000854618B020B5FFF7DDFFBDE820404FF091
:1001F00000064FF000074FF000084FF0000B21F011
:100200000701AC46ACE8C009ACE8C009ACE8C009DD
:10021000ACE8C0098D46704710B50446AFF30080C6
:100220002046BDE81040FFF7A8BF00000048704717
:100230000400002001491820ABBEFEE726000200A2
:10024000704700BFFEE7704710B54FF4804000F0E4
:1002500015F8012808D105480088401C034908808A
:100260004FF4804000F004F810BD000000000020B2
:100270000149086070470000140401400146002055
:100280000022074B1B6803EA0102054B14331B686D
:100290000B4013B10AB1012000E0002070470000BC
:1002A000000401402DE9F04102460025002600200F
:1002B00000230024002791F803C00CF00F0591F8EB
:1002C00003C00CF0100CBCF1000F03D091F802C079
:1002D0004CEA050591F800C0BCF1000F31D014685C
:1002E00000202BE04FF0010C0CFA00F3B1F800C035
:1002F0000CEA03069E4220D183004FF00F0C0CFA4B
:1003000003F7BC4305FA03FC4CEA040491F803C06C
:10031000BCF1280F06D14FF0010C0CFA00FCC2F81A
:1003200014C00AE091F803C0BCF1480F05D14FF0AA
:10033000010C0CFA00FCC2F810C0401C0828D1D3F4
:100340001460B1F800C0BCF1FF0F34DD5468002028
:100350002EE000F1080C4FF0010808FA0CF3B1F898
:1003600000C00CEA03069E4221D183004FF00F0C1F
:100370000CFA03F7BC4305FA03FC4CEA040491F8B9
:1003800003C0BCF1280F05D100F1080C08FA0CF8E5
:10039000C2F8148091F803C0BCF1480F07D100F1F6
:1003A000080C4FF0010808FA0CF8C2F81080401C45
:1003B0000828CED35460BDE8F0810AB1016100E0A5
:1003C0004161704700BFFEE710B5044800F076FCBD
:1003D000401C034991FBF0F080B210BD00040040C6
:1003E00040420F0000B587B00121022000F066FAFC
:1003F0000121042000F072FA28208DF81B00402013
:10040000ADF8180003208DF81A0006A91B48FFF765
:1004100049FF1B4800F0ACFC0020ADF81200ADF81D
:100420000E004FF6FF70ADF810004720ADF80C003D
:1004300000208DF8140003A9114800F041FD0020B0
:10044000ADF80000ADF80800ADF80200ADF8060008
:100450000120ADF804006946094800F033FC502142
:10046000074800F0EDFC0421054800F0F2FC0121F2
:10047000034800F017FC07B000BD00000008014071
:100480000004004000BFFEE7704770B500240EE096
:100490000021204600F0F3F8002504E0002000F0E1
:1004A0007FF9681CC5B2802DF8DB601CC4B2082C33
:1004B000EEDB70BD08B50121082000F00FFA142012
:1004C0008DF8030003208DF802004FF48070ADF822
:1004D000000069460A48FFF7E5FE4FF40070ADF8EA
:1004E000000069460648FFF7DDFE012211020448BC
:1004F000FFF763FF012251020148FFF75EFF08BDCD
:10050000000C014070B50546002419E08020204110
:10051000284008B1012000E0002002464FF400719D
:100520000E48FFF74AFF012211020C48FFF745FF72
:1005300000224FF480710948FFF73FFF601CC4B2EE
:10054000082CE3DB012211020448FFF736FF0022EA
:100550004FF480710148FFF730FF70BD000C01407F
:1005600010B5012251020A48FFF727FF01221102AC
:100570000748FFF722FF00224FF400710448FFF7FD
:100580001CFF00224FF480710148FFF716FF10BDD9
:10059000000C014010B500224FF400710648FFF72F
:1005A0000CFF012211020448FFF707FF012251024C
:1005B0000148FFF702FF10BD000C014070B5002498
:1005C00006E0002500E06D1CB5F57A7FFBD3641CC6
:1005D000B4F57A7FF5D3FFF76DFFAE2000F0D0F8C9
:1005E000D52000F0CDF8802000F0CAF8A82000F057
:1005F000C7F83F2000F0C4F8D32000F0C1F8002075
:1006000000F0BEF8402000F0BBF8A12000F0B8F8E0
:10061000C82000F0B5F8DA2000F0B2F8122000F09F
:10062000AFF8812000F0ACF8CF2000F0A9F8D92075
:1006300000F0A6F8F12000F0A3F8DB2000F0A0F80D
:10064000302000F09DF8A42000F09AF8A62000F0D9
:1006500097F88D2000F094F8142000F091F8AF2066
:1006600000F08EF8FFF711FF70BD10B502460120B3
:1006700000E050430B1EA1F10101FAD110BD70B58D
:1006800005460C4645F0B00000F07AF8102141EA2A
:10069000141000F075F804F00F0000F071F870BD50
:1006A0002DE9F04105460E461746721ED206110E80
:1006B0006A1E5206100EFFF7E2FF002409E0A7F1C0
:1006C0002001134A02EB0111085D00F069F8601C7B
:1006D000C4B2082CF3DB721ED206110E6A1E01236F
:1006E00003EB4202D0B2FFF7CAFF00240BE0A7F1F0
:1006F0002001074A02EB011204F10801505C00F0EE
:100700004FF8601CC4B2082CF1DBBDE8F08100009A
:10071000AC0F00082DE9F04780460E4617461D46EF
:10072000002415E0281B411E0A20FFF79EFFB7FB9F
:10073000F0F00A21B0FBF1F201FB120000F13009E8
:100740003019C1B24A464046FFF7AAFF601CC4B246
:10075000AC42E7DBBDE8F0872DE9F04107460E46E5
:100760001546002407E02A5D3019C1B23846FFF76C
:1007700097FF601CC4B2285D0028F4D1BDE8F08169
:1007800010B50446FFF7ECFE7820FFF7BBFE002013
:10079000FFF7B8FE2046FFF7B5FEFFF7FBFE10BDE2
:1007A00010B50446FFF7DCFE7820FFF7ABFE4020D3
:1007B000FFF7A8FE2046FFF7A5FEFFF7EBFE10BDF2
:1007C00000B589B00121084600F078F84FF080406C
:1007D00000F0CEFA0121042000F080F818208DF8F6
:1007E00023000120ADF8200003208DF8220008A985
:1007F0001C48FFF757FD0020ADF81A00ADF81600B1
:100800006320ADF8180040F29F50ADF814000020AE
:100810008DF81C0005A94FF0804000F051FB01A8A5
:1008200000F001FB6020ADF804000120ADF80600E7
:100830001420ADF80A000020ADF80C0001A94FF01B
:10084000804000F09BFA0821C80600F0E3FA01217D
:10085000880700F01BFA0121880700F023FA09B08D
:1008600000BD00000008014010B50446632C00DD07
:10087000632421464FF0804000F0F4FA10BD0000E0
:100880002DE9F04105460B4F4FF0640805FB08F0D9
:10089000B7FBF0F414B1B4F5803F01D9BDE8F081A5
:1008A000601E86B2002231464FF0804000F0C5FA4B
:1008B00000BFF3E700A24A047047000029B1064ACE
:1008C000D2690243044BDA6104E0034AD2698243ED
:1008D000014BDA61704700000010024029B1064A5E
:1008E00092690243044B9A6104E0034A926982438D
:1008F000014B9A617047000000100240704710B52C
:1009000000F002F810BD00000CB50020019000902E
:100910003348006840F480303149086000BF3048F7
:10092000006800F4003000900198401C019000988D
:1009300018B90198B0F5A06FF1D12948006800F40A
:10094000003010B10120009001E0002000900098DC
:10095000012843D12348006840F010002149086075
:100960000846006820F0030008600846006840F070
:10097000020008601A484068194948600846406803
:1009800048600846406840F4806048600846406817
:1009900020F47C1048600846406840F4E810486045
:1009A0000846006840F08070086000BF0C4800688E
:1009B00000F000700028F9D00948406820F00300DA
:1009C000074948600846406840F00200486000BFA0
:1009D0000348406800F00C000828F9D10CBD000065
:1009E00000100240002002407047000010B513487C
:1009F000006840F00100114908600846406810494D
:100A000008400E494860084600680E4908400B49F6
:100A100008600846006820F48020086008464068A6
:100A200020F4FE0048604FF41F008860FFF767FF66
:100A30004FF000600449086010BD00000010024043
:100A40000000FFF8FFFFF6FE08ED00E0F0B50C46F1
:100A5000154600220021068C4FF6FE773E400684A4
:100A6000028B018C4FF60C7632407E1C06EA031690
:100A70002E433243104EB0420ED0104EB0420BD037
:100A8000B0F1804F08D00E4EB04205D00D4EB042AE
:100A900002D00D4EB04206D14FF6FD76314044F003
:100AA0000106314305E04FF6F576314044F001068A
:100AB000314302830184F0BD002C01400034014029
:100AC0000004004000080040000C0040F0B50C4657
:100AD0001546002200210026078C4FF6EF7C07EA1E
:100AE0000C070784028B018C4FF6FF7707EA041688
:100AF00040F6FF473A404FF6FF7707EA03373A439D
:100B00004FF6FF7707EA05273A43114FB8420ED058
:100B1000104FB8420BD0B0F1804F08D00E4FB84202
:100B200005D00E4FB84202D00D4FB84206D14FF655
:100B3000DF77394046F01007394305E04FF65F771D
:100B4000394044F01007394302830184F0BD0000AE
:100B5000002C014000340140000400400008004027
:100B6000000C0040F0B50C4615460022002100267E
:100B7000078C4FF6FF6C07EA0C070784828B018C09
:100B80004FF6FF7707EA04264FF60C773A404FF608
:100B9000FF7707EA03172F433A43114FB8420ED0AD
:100BA000104FB8420BD0B0F1804F08D00E4FB84272
:100BB00005D00E4FB84202D00D4FB84206D14FF6C5
:100BC000FF57394046F48077394305E04FF2FF572D
:100BD000394044F48077394382830184F0BD0000BA
:100BE000002C014000340140000400400008004097
:100BF000000C0040F0B50C461546002200210026EE
:100C0000078C4EF6FF7C07EA0C070784828B018C69
:100C10004FF6FF7707EA043640F6FF473A404FF6B3
:100C2000FF7707EA05273A434FF6FF7707EA0337CE
:100C30003A43114FB8420ED0104FB8420BD0B0F12A
:100C4000804F08D00E4FB84205D00E4FB84202D0A8
:100C50000D4FB84206D14DF6FF77394046F4805724
:100C6000394305E047F6FF57394044F4805739438C
:100C700082830184F0BD0000002C0140003401405B
:100C80000004004000080040000C004021B1028830
:100C900042F08002028004E002884FF67F731A401F
:100CA0000280704721B1028842F00102028004E014
:100CB00002884FF6FE731A40028070470146888E04
:100CC0007047000070B505460C46244885420ED09A
:100CD000234885420BD0B5F1804F08D0214885428A
:100CE00005D02148854202D02048854200D100E04D
:100CF00000BF208850B92389A28861882846FFF761
:100D0000A5FEE188284600F0AFF825E020880428F9
:100D10000AD12389A28861882846FFF7D7FEE18897
:100D2000284600F0AAF817E0208808280AD123896D
:100D3000A28861882846FFF715FFE188284600F061
:100D4000A9F809E02389A28861882846FFF752FFA5
:100D5000E188284600F0A7F870BD0000002C014093
:100D6000003401400004004000080040000C004036
:100D700001894FF6F87211400181704770B5002467
:100D800000220023058C4FF6FE7635400584028C48
:100D90008388048B4FF68F752C40B51E2C400D8830
:100DA0002C43751E2A400D892A434D882A43144D31
:100DB000A8420BD0134DA84208D0134DA84205D02D
:100DC000124DA84202D0124DA84213D14FF6F7752A
:100DD0002A404D892A434FF6FB752A408D882A43C5
:100DE0004FF6FF652B404FF6FF552B408D892B4367
:100DF000CD892B4383800483CD888586028470BD92
:100E0000002C0140003401400040014000440140FA
:100E1000004801400A460021018B4FF6F773194044
:100E20001143018370470021018041808180C1808E
:100E3000018141818181C181704701858282704732
:100E40000A46002101894FF68F7319401143018131
:100E5000704702894FF6F8731A40028102890A43EB
:100E60000281704781867047028B4FF6F3731A40F8
:100E70000283028B0A4302837047028B4FF2FF33D7
:100E80001A400283028B4FF6FF7303EA01231A43D1
:100E900002837047828B4FF6F3731A408283828BF2
:100EA0000A4382837047828B4FF2FF331A4082835A
:100EB000828B4FF6FF7303EA01231A438283704744
:100EC000002202881D4B98420ED01D4B98420BD039
:100ED000B0F1804F08D01B4B984205D01A4B984276
:100EE00002D01A4B984204D14FF68F731A404B88A8
:100EF0001A43174B984207D0164B984204D04FF62E
:100F0000FF431A40CB881A4302808B8883850B8865
:100F100003850A4B98420BD0094B984208D00E4BE0
:100F2000984205D00D4B984202D00D4B984201D10A
:100F30000B7A03860123838270470000002C014056
:100F4000003401400004004000080040000C004054
:100F500000100040001400400040014000440140E7
:100F60000048014000BFFEE7FFF728FB0CA201216B
:100F70000846FFF7F1FBFFF723FCFFF733FA662083
:100F8000FFF77EFC3220FFF76FFC08E0FFF71CFA4A
:100F900004460523224604210220FFF7BBFBF5E7A8
:100FA0004672657175656E63793A00000000000055
:100FB000000000000000000000000000000000F839
:100FC00000000000000000333000000000100C069C
:100FD000100C0600000000000000000040C0784037
:100FE000C0784000043F04043F040400007088FC03
:100FF00008300000001820FF211E0000F008F0005B
:10100000E018000000211C031E211E0000F00888CB
:10101000700000001E2123241927211010160E0035
:10102000000000000000000000000000000000E0E0
:1010300018040200000000071820400000020418F5
:10104000E00000000040201807000000404080F051
:10105000804040000202010F01020200000000F087
:10106000000000000101011F01010100000000005B
:101070000000000080B070000000000000000000D0
:101080000000000000010101010101010000000059
:1010900000000000003030000000000000000000F0
:1010A00080601804006018060100000000E01008CD
:1010B0000810E000000F102020100F00001010F8A2
:1010C000000000000020203F2020000000700808E1
:1010D0000888700000302824222130000030088861
:1010E000884830000018202020110E000000C02089
:1010F00010F8000000070424243F240000F80888AA
:10110000880808000019212020110E0000E0108836
:1011100088180000000F112020110E000038080868
:10112000C83808000000003F000000000070880878
:1011300008887000001C222121221C0000E01008F9
:101140000810E0000000312222110F00000000C052
:10115000C0000000000000303000000000000080EF
:1011600000000000000080600000000000008040DF
:1011700020100800000102040810200040404040F8
:10118000404040000404040404040400000810204B
:101190004080000000201008040201000070480890
:1011A0000808F0000000003036010000C030C828F8
:1011B000E810E0000718272423140B000000C038B3
:1011C000E0000000203C23020227382008F888882D
:1011D00088700000203F202020110E00C030080839
:1011E00008083800071820202010080008F8080810
:1011F0000810E000203F202020100F0008F8888809
:10120000E8081000203F20202320180008F88888D4
:10121000E8081000203F200003000000C03008084C
:101220000838000007182020221E020008F80800D5
:101230000008F808203F210101213F20000808F89C
:10124000080800000020203F2020000000000808BF
:10125000F8080800C08080807F00000008F888C07F
:1012600028180800203F20012638200008F8080030
:1012700000000000203F20202020300008F8F80067
:10128000F8F80800203F003F003F200008F830C079
:101290000008F808203F200007183F00E010080869
:1012A0000810E0000F10202020100F0008F8080898
:1012B0000808F000203F210101010000E0100808AB
:1012C0000810E0000F18242438504F0008F88888D0
:1012D00088887000203F2000030C302000708808B0
:1012E000080838000038202121221C00180808F8BE
:1012F000080818000000203F2000000008F808003F
:101300000008F808001F202020201F00087888000F
:1013100000C83808000007380E010000F80800F87F
:101320000008F800033C0700073C03000818688029
:101330008068180820302C03032C30200838C8009F
:10134000C83808000000203F2000000010080808EE
:10135000C83808002038262120201800000000FE90
:10136000020202000000007F40404000000C30C03C
:1013700000000000000000010638C0000002020268
:10138000FE000000004040407F000000000004021A
:101390000202040000000000000000000000000045
:1013A0000000000080808080808080800002020435
:1013B000000000000000000000000000000080802D
:1013C000808000000019242222223F2008F800809B
:1013D00080000000003F112020110E00000000805E
:1013E00080800000000E11202020110000000080ED
:1013F0008088F800000E112020103F20000080801F
:1014000080800000001F222222221300008080F032
:10141000888888180020203F20200000000080805D
:1014200080808000006B94949493600008F80080A2
:1014300080800000203F210000203F2000809898FD
:10144000000000000020203F20200000000000805D
:101450009898000000C08080807F000008F800009D
:1014600080808000203F24022D302000000808F8F2
:10147000000000000020203F2020000080808080AD
:1014800080808000203F20003F20003F808000803F
:1014900080800000203F210000203F20000080804D
:1014A00080800000001F202020201F0080800080FE
:1014B0008000000080FFA12020110E0000000080AD
:1014C00080808000000E112020A0FF80808080009E
:1014D0008080800020203F212000010000008080CB
:1014E000808080000033242424241900008080E0C0
:1014F000808000000000001F20200000808000008D
:1015000000808000001F202020103F20808080006D
:101510000080808000010E3008060100808000807D
:10152000008080800F300C030C300F0000808000A2
:10153000808080000020312E0E31200080808000CD
:101540000080808080818E7018060100008080807D
:10155000808080000021302C22213000000000001B
:10156000807C020200000000003F404000000000BC
:10157000FF00000000000000FF0000000002027CED
:10158000800000000040403F000000000006010114
:10159000020204040000000000000000BC15000866
:1015A000000000200400000028010008C015000809
:1015B0000400002064060000440100080000000050
:04000005080000ED02
:00000001FF
